:100000000C9460000C9488000C9488000C94880078
:100010000C9488000C9488000C9488000C94880040
:100020000C9488000C9488000C9488000C94880030
:100030000C9488000C9488000C9488000C94880020
:100040000C9428010C9488000C9488000C9488006F
:100050000C9488000C9488000C9488000C94880000
:100060000C9488000C9488000000000024002700F5
:100070002A0000000000250028002B0004040404CE
:100080000404040402020202020203030303030342
:10009000020102040810204080010204081020011F
:1000A0000204081020800000000800020100000384
:1000B00004070000000000000000000003036203CA
:1000C00011241FBECFEFD8E0DEBFCDBF21E0A6E0F8
:1000D000B1E001C01D92A932B207E1F711E0A0E042
:1000E000B1E0E4E5F9E002C005900D92A630B10759
:1000F000D9F710E0CFE5D0E004C02197FE010E94BF
:100100007203CE35D107C9F70E9472010C949D0489
:100110000C94000090E0FC01EA55FF4F2491FC0193
:10012000EF56FF4F3491FC01E458FF4FE491EE236A
:10013000B9F0222339F02330F1F098F4213009F19D
:10014000223019F1F0E0EE0FFF1FEE58FF4FA5919E
:10015000B4918FB7F894EC9130953E233C938FBFC8
:1001600008952730A9F02830C9F0243059F780913C
:1001700080008F7D03C0809180008F778093800006
:10018000E1CF84B58F7784BDDDCF84B58F7DFBCF84
:100190008091B0008F778093B000D4CF8091B00071
:1001A0008F7DF9CFCF93DF9390E0FC01EF56FF4FA7
:1001B000249184589F4FFC0184918823D1F090E0D2
:1001C000880F991FFC01E859FF4FA591B491FC01DC
:1001D000EE58FF4FC591D49161110EC09FB7F894AE
:1001E0008C91E22FE0958E238C932881E223E88383
:1001F0009FBFDF91CF9108958FB7F894EC91E22BD8
:10020000EC938FBFF6CF3FB7F89480912101909186
:100210002201A0912301B091240126B5A89B05C01D
:100220002F3F19F00196A11DB11D3FBFBA2FA92F75
:10023000982F8827BC01CD01620F711D811D911D72
:1002400042E0660F771F881F991F4A95D1F70895DE
:100250001F920F920FB60F9211242F933F938F93FB
:100260009F93AF93BF9380911D0190911E01A09128
:100270001F01B091200130911C0123E0230F2D3785
:1002800058F50196A11DB11D20931C0180931D01FD
:1002900090931E01A0931F01B09320018091210132
:1002A00090912201A0912301B09124010196A11DFA
:1002B000B11D8093210190932201A0932301B0935B
:1002C0002401BF91AF919F918F913F912F910F90FA
:1002D0000FBE0F901F90189526E8230F0296A11DC0
:1002E000B11DD2CFCF93DF93CDB7DEB729970FB62D
:1002F000F894DEBF0FBECDBF789484B5826084BD14
:1003000084B5816084BD85B5826085BD85B5816019
:1003100085BD80916E00816080936E001092810097
:100320008091810082608093810080918100816052
:100330008093810080918000816080938000809113
:10034000B10084608093B1008091B000816080939F
:10035000B00080917A00846080937A0080917A0066
:10036000826080937A0080917A00816080937A0025
:1003700080917A00806880937A001092C100809109
:100380000C0190910D0197FD07C061E00E94D20021
:1003900080910C010E948A0081E080930701CC24A7
:1003A000CA9470E0E72E70E0F72EE8E0DE2E10E051
:1003B00000E080910801909109010817190760F584
:1003C00080910E012FEF882321F08C9DC001112414
:1003D000292FE091140180910F019091100130912B
:1003E0001101A801E313CCC0440F551F400F511F4A
:1003F000840F951FE0911101E80FF92FF11D208363
:10040000E0911201E80FF92FF11D208330911301C3
:10041000830F911DFC01208380910F0190911001A9
:10042000892B09F47BC00E940301809015019090F4
:100430001601A0901701B0901801681579058A057A
:100440009B0540F46093150170931601809317018A
:10045000909318018090150190901601A0901701BB
:10046000B0901801681979098A099B096C327140AA
:1004700081059105C0F2F89480910A0190910B01D9
:100480009A838983E0910F01F0911001DF011196A9
:100490008081898790910601E0911901F0911A01FC
:1004A00080911B01992309F476C09081982B98873D
:1004B0009081809589238F838F818C83DB825885FF
:1004C0006F8149853B812C8189819A81508347FDC9
:1004D000252F3A952083262F39F0441F00C00000B5
:1004E0006083000000C0F2CF38E04D9160830000CF
:1004F000019761F7F0931A01E093190149873B8353
:100500002C839A83898378940E9403016093150158
:100510007093160180931701909318010E940301B4
:100520002B013C0184EF882E99249394A12CB12CAB
:100530000E9403016419750986099709683E734092
:1005400081059105A8F321E0821A9108A108B1085C
:1005500088EE480E83E0581E611C711C81149104C2
:10056000A104B10429F70F5F1F4F0C30110509F0EA
:1005700020CFE114F10409F41ACF0E94000017CF34
:10058000440F551F440F551F840F951FE80FF92F77
:10059000F11D10822FCF9081982B988790818095A4
:1005A00089238F838F818E83DD8258856F81498572
:1005B0003D812E8189819A81508347FD252F00C07E
:1005C00000C0208300C000C000C000C000C0608325
:1005D0000000262F3A9541F0441F000000C000C0E3
:1005E00000C000C000C0E8CF38E04D9100C060837B
:1005F00000C0019709F7F0931A01E09319014987A8
:100600003D832E837ECF1092070110920E0110922F
:10061000150110921601109217011092180181E035
:1006200080931401809311011092120192E0909333
:1006300013018093060184E290E090930B01809374
:100640000A010E9478039093100180930F01009794
:1006500081F124E2FC0111922A95E9F78CE090E007
:10066000909309018093080186E090E090930D013A
:1006700080930C0180910701882339F061E086E0C6
:100680000E94D20086E00E948A00E2E8F0E0E49155
:10069000F0E0EE0FFF1FEE58FF4F8591949190937D
:1006A0001A0180931901E7E9F0E0E491E0931B015E
:1006B000089510920B0110920A01109209011092F4
:1006C0000801D2CF80910F01909110010E94140473
:1006D00080910C0190910D0197FD03C060E00C9496
:1006E000D2000895EE0FFF1F0590F491E02D0994BC
:1006F0000F931F93CF93DF938230910510F482E024
:1007000090E0E0912701F091280130E020E0B0E096
:10071000A0E0309799F42115310509F44AC0281B4F
:10072000390B24303105D8F58A819B81611571051B
:1007300089F1FB0193838283FE0111C040815181C5
:100740000281138148175907E0F04817590799F4B7
:10075000109761F012960C93129713961C93329691
:10076000CF01DF91CF911F910F9108950093270141
:1007700010932801F4CF2115310551F0421753078A
:1007800038F0A901DB019A01BD01DF01F801C1CFF9
:10079000EF01F9CF9093280180932701CDCFFE017F
:1007A000E20FF31F819391932250310939832883FB
:1007B000D7CF2091250130912601232B41F42091A0
:1007C00002013091030130932601209325012091ED
:1007D0000001309101012115310541F42DB73EB7DB
:1007E0004091040150910501241B350BE091250136
:1007F000F0912601E217F307A0F42E1B3F0B2817F8
:10080000390778F0AC014E5F5F4F2417350748F089
:100810004E0F5F1F509326014093250181939193C2
:100820009FCFF0E0E0E09CCFCF93DF930097E9F01B
:10083000FC01329713821282A0912701B091280106
:10084000ED0130E020E01097A1F420813181820F8A
:10085000931F20912501309126012817390709F0AF
:1008600061C0F0932601E0932501DF91CF910895B7
:10087000EA01CE17DF07E8F54A815B819E01411549
:100880005105B1F7E901FB83EA8349915991C40FFE
:10089000D51FEC17FD0761F4808191810296840FCA
:1008A000951FE90199838883828193819B838A8341
:1008B000F0E0E0E012968D919C9113970097B9F5C6
:1008C0002D913C911197CD010296820F931F20919B
:1008D0002501309126012817390739F6309751F54F
:1008E0001092280110922701B0932601A0932501B0
:1008F000BCCFD383C28340815181840F951FC81719
:10090000D90761F44E5F5F4F88819981480F591F65
:10091000518340838A819B81938382832115310592
:1009200009F0B0CFF0932801E09327019ECFFD019D
:10093000DC01C0CF13821282D7CF10E0CFE5D0E028
:1009400004C0FE010E9472032196C036D107C9F788
:04095000F894FFCF49
:06095400000029018000F3
:00000001FF
