:020000040000FA
:100000000C9460000C9488000C9488000C94880078
:100010000C9488000C9488000C9488000C94880040
:100020000C9488000C9488000C9488000C94880030
:100030000C9488000C9488000C9488000C94880020
:100040000C9483020C9488000C94F3020C94CD025F
:100050000C9488000C9488000C9488000C94880000
:100060000C9488000C9488000000000024002700F5
:100070002A0000000008000201000003040700003D
:100080000000000000000001020408102040800170
:100090000204081020010204081020800000000063
:1000A000250028002B0004040404040404040202B4
:1000B0000202020203030303030302002503B50641
:1000C00011241FBECFEFD8E0DEBFCDBF11E0A0E00E
:1000D000B1E0E4E4F5E102C005900D92A032B10771
:1000E000D9F723E0A0E2B1E001C01D92A230B2072F
:1000F000E1F710E0CFE5D0E004C02197FE010E94B7
:100100006A09CE35D107C9F70E94C6030C94950A37
:100110000C94000090E0FC01EE58FF4F2491FC018C
:10012000E957FF4F3491FC01EA55FF4FE491EE236C
:10013000B9F0222339F02330F1F098F4213009F19D
:10014000223019F1F0E0EE0FFF1FE456FF4FA591AA
:10015000B4918FB7F894EC9130953E233C938FBFC8
:1001600008952730A9F02830C9F0243059F780913C
:1001700080008F7D03C0809180008F778093800006
:10018000E1CF84B58F7784BDDDCF84B58F7DFBCF84
:100190008091B0008F778093B000D4CF8091B00071
:1001A0008F7DF9CFCF93DF9390E0FC01E957FF4FAC
:1001B00024918A559F4FFC0184918823D1F090E0CF
:1001C000880F991FFC01E859FF4FA591B491FC01DC
:1001D000E456FF4FC591D49161110EC09FB7F894BA
:1001E0008C91E22FE0958E238C932881E223E88383
:1001F0009FBFDF91CF9108958FB7F894EC91E22BD8
:10020000EC938FBFF6CF3FB7F8948091470290915F
:100210004802A0914902B0914A0226B5A89B05C0A8
:100220002F3F19F00196A11DB11D3FBFBA2FA92F75
:10023000982F8827BC01CD01620F711D811D911D72
:1002400042E0660F771F881F991F4A95D1F70895DE
:10025000AF92BF92CF92DF92EF92FF920F931F93D4
:10026000CF93DF936C017B018B01040F151FEB0112
:100270005E01AE18BF08C017D10759F06991D601C9
:10028000ED91FC910190F081E02DC6010995892B3B
:1002900079F7C501DF91CF911F910F91FF90EF90FA
:1002A000DF90CF90BF90AF900895FC01538D448DA7
:1002B000252F30E0842F90E0821B930B541710F011
:1002C000CF96089501970895FC01918D828D98171E
:1002D00061F0A28DAE0FBF2FB11D5D968C91928DF6
:1002E0009F5F9F73928F90E008958FEF9FEF089527
:1002F000FC01918D828D981731F0828DE80FF11DF0
:10030000858D90E008958FEF9FEF0895FC01918D0A
:10031000228D892F90E0805C9F4F821B91098F7303
:10032000992708958BE492E00E94860121E0892BB1
:1003300009F420E0822F089580E090E0892B29F0D5
:100340000E94920181110C9400000895FC01A48D7B
:10035000A80FB92FB11DA35ABF4F2C91848D90E0E7
:1003600001968F739927848FA689B7892C93A089CA
:10037000B1898C91837080648C93938D848D981354
:1003800006C00288F389E02D80818F7D80830895E7
:10039000EF92FF920F931F93CF93DF93EC0181E0D5
:1003A000888F9B8D8C8D98131AC0E889F98980817C
:1003B00085FF15C09FB7F894EE89FF896083E889AF
:1003C000F98980818370806480839FBF81E090E0A1
:1003D000DF91CF911F910F91FF90EF900895F62E2E
:1003E0000B8D10E00F5F1F4F0F731127E02E8C8DC8
:1003F0008E110CC00FB607FCFACFE889F98980810D
:1004000085FFF5CFCE010E94A601F1CFEB8DEC0F59
:10041000FD2FF11DE35AFF4FF0829FB7F8940B8F29
:10042000EA89FB8980818062CFCFCF93DF93EC0193
:10043000888D8823B9F0AA89BB89E889F9898C91CC
:1004400085FD03C0808186FD0DC00FB607FCF7CF88
:100450008C9185FFF2CF808185FFEDCFCE010E9488
:10046000A601E9CFDF91CF9108958F929F92AF922D
:10047000BF920F931F93CF93DF93CDB7DEB7A197B2
:100480000FB6F894DEBF0FBECDBF19A2423008F4FC
:100490004AE08E010F5D1F4F842E912CB12CA12CB0
:1004A000A50194010E949B07E62FB901CA01EA3019
:1004B00044F5E05DD801EE938D01232B242B252BF1
:1004C00079F790E080E0109769F0FD01019000203D
:1004D000E9F73197AF014A1B5B0BBD018BE492E05A
:1004E0000E942801A1960FB6F894DEBF0FBECDBFC3
:1004F000DF91CF911F910F91BF90AF909F908F9000
:100500000895E95CD7CF1F920F920FB60F92112476
:100510002F933F938F939F93AF93BF938091430209
:1005200090914402A0914502B0914602309142025E
:1005300023E0230F2D3758F50196A11DB11D2093FF
:1005400042028093430290934402A0934502B093E9
:1005500046028091470290914802A0914902B091D1
:100560004A020196A11DB11D809347029093480253
:10057000A0934902B0934A02BF91AF919F918F918E
:100580003F912F910F900FBE0F901F90189526E866
:10059000230F0296A11DB11DD2CF1F920F920FB64D
:1005A0000F9211242F933F934F935F936F937F93F9
:1005B0008F939F93AF93BF93EF93FF938BE492E05E
:1005C0000E94A601FF91EF91BF91AF919F918F91F2
:1005D0007F916F915F914F913F912F910F900FBE3F
:1005E0000F901F9018951F920F920FB60F92112423
:1005F0002F938F939F93EF93FF93E0915B02F09182
:100600005C028081E0916102F091620282FD1BC078
:100610009081809164028F5F8F73209165028217B1
:1006200041F0E0916402F0E0E55BFD4F958F80932F
:100630006402FF91EF919F918F912F910F900FBEC8
:100640000F901F9018958081F4CF10924E02109257
:100650004D0288EE93E0A0E0B0E080934F029093CB
:100660005002A0935102B09352028EE091E0909319
:100670004C0280934B0285EC90E09093580280935B
:10068000570284EC90E090935A028093590280ECD8
:1006900090E090935C0280935B0281EC90E09093F9
:1006A0005E0280935D0282EC90E090936002809302
:1006B0005F0286EC90E09093620280936102109258
:1006C0006402109265021092660210926702109204
:1006D000E9021092F0021092F7021092F8021092C2
:1006E000F9021092FA0281E08093F6028093F302FD
:1006F0001092F40292E09093F5028093E80284E273
:1007000090E09093ED028093EC020E947009909328
:10071000F2028093F102009781F124E2FC01119230
:100720002A95E9F78CE090E09093EB028093EA023F
:1007300083E090E09093EF028093EE028091E902D3
:10074000882339F061E083E00E94D20083E00E94B8
:100750008A00E9EAF0E0E491F0E0EE0FFF1FE456D2
:10076000FF4F859194919093FC028093FB02EAE8FD
:10077000F0E0E491E093FD0208951092ED021092F2
:10078000EC021092EB021092EA02D2CFCF93DF93E9
:10079000CDB7DEB729970FB6F894DEBF0FBECDBF39
:1007A000789484B5826084BD84B5816084BD85B54C
:1007B000826085BD85B5816085BD80916E00816058
:1007C00080936E00109281008091810082608093FE
:1007D0008100809181008160809381008091800000
:1007E0008160809380008091B10084608093B1002B
:1007F0008091B00081608093B00080917A00846025
:1008000080937A0080917A00826080937A00809150
:100810007A00816080937A0080917A00806880936A
:100820007A001092C100E0915B02F0915C0282E0DC
:100830008083E0915702F09158021082E0915902B2
:10084000F0915A028FEC808310926302E0915F0274
:10085000F091600286E08083E0915D02F0915E029B
:10086000808180618083E0915D02F0915E028081F1
:1008700088608083E0915D02F0915E0280818068F3
:100880008083E0915D02F0915E0280818F7D8083A4
:1008900080EB91E0A0EBB1E0E0E2F1E040E050E07D
:1008A00060E073E410821182128213824D935D9393
:1008B0006D937C9313971482158216821782149677
:1008C0004D935D936D937C931797108611861286D6
:1008D000138618964D935D936D937C931B973C966E
:1008E0001C968E179F07F1F68091EE029091EF0211
:1008F00097FD07C061E00E94D2008091EE020E9445
:100900008A0081E08093E902809140029091410247
:100910008C3B92400CF46CC0109241021092400249
:1009200005E010E00E9411072CE030E040E050E0CC
:100930000E9469072B010E9411076B017C010E9434
:1009400011074B015C01C701B60129E030E040E02E
:1009500050E00E9469076B01C501B40121E130E05C
:1009600040E050E00E946907C69E9001C79E300D8E
:10097000D69E300D11246901032E000CEE08FF08ED
:100980004AE0C701B60137FF0DC06DE28BE492E08B
:100990000E94C80166277727CB016C197D098E0953
:1009A0009F094AE00E94350242E050E06CE171E0AC
:1009B0008BE492E00E942801C701B6010E947108F1
:1009C000ACE0A49DF001A59DF00D1124E055FE4F73
:1009D0006483758386839783608771878287938713
:1009E00010821182128213820150110909F09ACFEC
:1009F00000EB11E080E2C82E81E0D82E5601F12CE8
:100A0000E12CF50121903190419051905F013F011F
:100A1000F4E06F1A7108F801EE0DFF1DA2019101BB
:100A200060817181828193810E94CC072AE037ED39
:100A300043EA5CE30E94FD08A20191010E94CD07F8
:100A4000D3016D937D938D939C931397B4E0EB0E3C
:100A5000F11CECE0EE16F104A1F6FCE0CF0ED11C87
:100A6000045F1F4F80E492E08017910739F6B0E2EF
:100A7000EB2EB1E0FB2E10E000E08091EA029091B5
:100A8000EB020817190708F065C0D7016D917D9139
:100A90008D919C910E943908462E512C712C612C0D
:100AA000320155244424F701648175818681978140
:100AB0000E943908562AD70118966D917D918D9123
:100AC0009C911B970E943908C201862BAC01B3018F
:100AD0002B0166247724A52EB62EC72EDD249A2D51
:100AE000842FE091F002EE2391F02E2F30E0249D30
:100AF000C001259D900D349D900D1124492EEA9D35
:100B0000500111249B2DE49FA0011124852FE09119
:100B1000F6024091F1025091F2022091F302E213A9
:100B2000DFC09801220F331F200F311F240F351F04
:100B3000E091F302E20FF32FF11D4082E091F40205
:100B4000E20FF32FF11D90839091F502290F311DD3
:100B5000D9018C930F5F1F4FBCE0EB0EF11C0C30E2
:100B6000110509F08ACF8091F1029091F202892B50
:100B700009F47CC00E9403010091F7021091F80271
:100B80002091F9023091FA026017710782079307EA
:100B900040F46093F7027093F8028093F902909307
:100BA000FA020091F7021091F8022091F9023091B7
:100BB000FA02601B710B820B930B6C327140810542
:100BC0009105C0F2F8948091EC029091ED029A8325
:100BD0008983E091F102F091F202DF0111968081A8
:100BE00089879091E802E091FB02F091FC028091EC
:100BF000FD02992309F480C09081982B98879081F9
:100C0000809589238F838F818C8328E02B8338857F
:100C10004F8169855B812C8189819A81308367FD51
:100C2000232F5A952083242F39F0661F00C000001F
:100C30004083000000C0F2CF58E06D914083000077
:100C4000019761F7F093FC02E093FB0269875B83F5
:100C50002C839A83898378940E9403016093F7021E
:100C60007093F8028093F9029093FA028091400207
:100C7000909141020A9690934102809340020E9413
:100C800003012B013C018AE0C82ED12CE12CF12C70
:100C90000E9403016419750986099709683E73402B
:100CA00081059105A8F391E0C91AD108E108F1087E
:100CB000A8EE4A0EA3E05A1E611C711CC114D10497
:100CC000E104F10429F7E0E0F0E0EF2B09F41CCE99
:100CD0000E949201882309F417CE0E94000014CECE
:100CE0009801220F331F220F331F240F351FE20FED
:100CF000F32FF11D10821CCF9081982B9887908143
:100D0000809589238F838F818E8388E08D833885BA
:100D10004F8169855D812E8189819A81308367FD4C
:100D2000232F00C000C0208300C000C000C000C04E
:100D300000C040830000242F5A9541F0661F000038
:100D400000C000C000C000C000C0E8CF58E06D91F6
:100D500000C0408300C0019709F7F093FC02E093C4
:100D6000FB0269875D832E8374CF8091F10290919D
:100D7000F2020E940C0A8091EE029091EF0297FD20
:100D800003C060E00C94D20008958F929F92AF92BE
:100D9000BF92CF92DF92EF92FF92CF93DF93EC015D
:100DA000688179818A819B81611571058105910531
:100DB00021F464E279ED8BE597E02DE133EF41E03A
:100DC00050E00E94690749015A019B01AC01A7EA62
:100DD000B1E40E9488076B017C01ACEEB4EFA50181
:100DE00094010E949607C60ED71EE81EF91EF7FE54
:100DF00006C081E0C81AD108E10880E8F80AC88274
:100E0000D982EA82FB82C701B6019F77DF91CF9139
:100E1000FF90EF90DF90CF90BF90AF909F908F901A
:100E200008958F929F92AF92BF92CF92DF92EF92EE
:100E3000FF926091000170910101809102019091F7
:100E40000301611571058105910521F464E279EDD5
:100E50008BE597E02DE133EF41E050E00E94690718
:100E600049015A019B01AC01A7EAB1E40E9488073D
:100E70006B017C01ACEEB4EFA50194010E949607D2
:100E8000C60ED71EE81EF91EF7FE06C081E0C81A7E
:100E9000D108E10880E8F80AC0920001D09201016F
:100EA000E0920201F0920301C701B6019F77FF9023
:100EB000EF90DF90CF90BF90AF909F908F9008956C
:100EC00060930001709301018093020190930301EC
:100ED0000895052E97FB1EF400940E94800757FD8D
:100EE00007D00E949B0707FC03D04EF40C948007A8
:100EF00050954095309521953F4F4F4F5F4F089546
:100F000090958095709561957F4F8F4F9F4F089575
:100F10000E94BD07A59F900DB49F900DA49F800DCA
:100F2000911D11240895B7FF0C9488070E9488072B
:100F3000821B930B0895A1E21A2EAA1BBB1BFD0175
:100F40000DC0AA1FBB1FEE1FFF1FA217B307E407A8
:100F5000F50720F0A21BB30BE40BF50B661F771F00
:100F6000881F991F1A9469F76095709580959095E0
:100F70009B01AC01BD01CF010895A29FB001B39FB9
:100F8000C001A39F700D811D1124911DB29F700D92
:100F9000811D1124911D08955058BB27AA270E9436
:100FA000E4070C94C3080E94B50838F00E94BC08FE
:100FB00020F039F49F3F19F426F40C94B2080EF493
:100FC000E095E7FB0C94AC08E92F0E94D40858F395
:100FD000BA17620773078407950720F079F4A6F51E
:100FE0000C94F6080EF4E0950B2EBA2FA02D0B01F1
:100FF000B90190010C01CA01A0011124FF27591B5E
:1010000099F0593F50F4503E68F11A16F040A22F63
:10101000232F342F4427585FF3CF469537952795D4
:10102000A795F0405395C9F77EF41F16BA0B620BD3
:10103000730B840BBAF09150A1F0FF0FBB1F661F1A
:10104000771F881FC2F70EC0BA0F621F731F841F5D
:1010500048F4879577956795B795F7959E3F08F083
:10106000B0CF9395880F08F09927EE0F9795879545
:1010700008950E9440086894B1110C94F7080895EF
:101080000E94DC0888F09F5798F0B92F9927B75134
:10109000B0F0E1F0660F771F881F991F1AF0BA951C
:1010A000C9F714C0B13091F00E94F608B1E008957C
:1010B0000C94F608672F782F8827B85F39F0B93F6E
:1010C000CCF3869577956795B395D9F73EF49095CF
:1010D0008095709561957F4F8F4F9F4F0895E8944D
:1010E00009C097FB3EF490958095709561957F4F70
:1010F0008F4F9F4F9923A9F0F92F96E9BB2793951E
:10110000F695879577956795B795F111F8CFFAF42D
:10111000BB0F11F460FF1BC06F5F7F4F8F4F9F4F5E
:1011200016C0882311F096E911C0772321F09EE8BC
:10113000872F762F05C0662371F096E8862F70E022
:1011400060E02AF09A95660F771F881FDAF7880FFC
:101150009695879597F9089597F99F6780E870E0CD
:1011600060E008959FEF80EC089500240A9416161D
:10117000170618060906089500240A941216130685
:10118000140605060895092E0394000C11F4882313
:1011900052F0BB0F40F4BF2B11F460FF04C06F5F2F
:1011A0007F4F8F4F9F4F089557FD9058440F551F05
:1011B00059F05F3F71F04795880F97FB991F61F0D9
:1011C0009F3F79F087950895121613061406551F50
:1011D000F2CF4695F1DF08C0161617061806991FBC
:1011E000F1CF86957105610508940895E894BB27B1
:1011F00066277727CB0197F908950E9410090C9470
:10120000C3080E94B50838F00E94BC0820F095235E
:1012100011F00C94AC080C94B20811240C94F7084B
:101220000E94D40870F3959FC1F3950F50E0551FAD
:10123000629FF001729FBB27F00DB11D639FAA272B
:10124000F00DB11DAA1F649F6627B00DA11D661F7A
:10125000829F2227B00DA11D621F739FB00DA11D9B
:10126000621F839FA00D611D221F749F3327A00D55
:10127000611D231F849F600D211D822F762F6A2FF1
:1012800011249F5750409AF0F1F088234AF0EE0F56
:10129000FF1FBB1F661F771F881F91505040A9F783
:1012A0009E3F510580F00C94AC080C94F7085F3F0A
:1012B000E4F3983ED4F3869577956795B795F795BF
:1012C000E7959F5FC1F7FE2B880F911D9695879537
:1012D00097F90895EE0FFF1F0590F491E02D099402
:1012E0000F931F93CF93DF938230910510F482E028
:1012F00090E0E0910003F091010330E020E0B0E0E5
:10130000A0E0309799F42115310509F44AC0281B53
:10131000390B24303105D8F58A819B81611571051F
:1013200089F1FB0193838283FE0111C040815181C9
:101330000281138148175907E0F04817590799F4BB
:10134000109761F012960C93129713961C93329695
:10135000CF01DF91CF911F910F910895009300036A
:1013600010930103F4CF2115310551F042175307B3
:1013700038F0A901DB019A01BD01DF01F801C1CFFD
:10138000EF01F9CF9093010380930003CDCFFE01CD
:10139000E20FF31F819391932250310939832883FF
:1013A000D7CF2091FE023091FF02232B41F42091F0
:1013B0000601309107013093FF022093FE02209135
:1013C0000401309105012115310541F42DB73EB7D7
:1013D0004091080150910901241B350BE091FE0258
:1013E000F091FF02E217F307A0F42E1B3F0B281722
:1013F000390778F0AC014E5F5F4F2417350748F08E
:101400004E0F5F1F5093FF024093FE028193919312
:101410009FCFF0E0E0E09CCFCF93DF930097E9F01F
:10142000FC01329713821282A0910003B091010354
:10143000ED0130E020E01097A1F420813181820F8E
:10144000931F2091FE023091FF022817390709F0FF
:1014500061C0F093FF02E093FE02DF91CF91089507
:10146000EA01CE17DF07E8F54A815B819E0141154D
:101470005105B1F7E901FB83EA8349915991C40F02
:10148000D51FEC17FD0761F4808191810296840FCE
:10149000951FE90199838883828193819B838A8345
:1014A000F0E0E0E012968D919C9113970097B9F5CA
:1014B0002D913C911197CD010296820F931F20919F
:1014C000FE023091FF022817390739F6309751F59F
:1014D0001092010310920003B093FF02A093FE024A
:1014E000BCCFD383C28340815181840F951FC8171D
:1014F000D90761F44E5F5F4F88819981480F591F6A
:10150000518340838A819B81938382832115310596
:1015100009F0B0CFF0930103E09300039ECFFD01EB
:10152000DC01C0CF13821282D7CF10E0CFE5D0E02C
:1015300004C0FE010E946A092196C036D107C9F78E
:10154000F894FFCF010000000000020380000000BB
:101550000000C801280155011502860164017801C7
:041560000D0A000070
:107E00001F92CDB7DEB7112484B714BE982F9D7092
:107E100009F0D7D085E08093810082E08093C00094
:107E200088E18093C10086E08093C20082E2809363
:107E3000C4008EE0B1D0259A26E080E39CEF31E0CB
:107E4000909385008093840036BBB09BFECF1D9A33
:107E5000A8952150A9F7812C912C93E0F92EEE24BE
:107E6000E39425E0D22E31E1C32E8AD0813479F417
:107E700087D0898397D08981823811F482E005C048
:107E8000813811F486E001C083E073D06FC0823482
:107E900011F484E103C0853419F485E08BD066C009
:107EA000853541F46DD0882E6BD0912C982A880CA2
:107EB000991C5BC0863521F484E07CD080E0E5CF5E
:107EC000843609F036C05CD05BD0B82E59D0A82ECD
:107ED00000E011E055D0F80181938F01BE12FACF76
:107EE00061D0F5E4AF1201C0FFCFF401F7BEE89511
:107EF00007B600FCFDCFB401A0E0B1E02C911296D2
:107F0000AD0141505109FA01808130E0382BFB016D
:107F10000901E7BEE89511246E5F7F4FBA12EECFDC
:107F2000F401D7BEE89507B600FCFDCFC7BEE895C3
:107F30001DC0843769F424D023D0B82E21D032D08C
:107F40008401F80185918F0114D0BA94D1F70EC045
:107F5000853739F427D08EE10CD085E90AD08FE03F
:107F600094CF813511F488E017D01CD080E101D086
:107F70007CCF9091C00095FFFCCF8093C600089500
:107F80008091C00087FFFCCF8091C00084FD01C0BC
:107F9000A8958091C6000895E0E6F0E098E190830E
:107FA00080830895EDDF803219F088E0F5DFFFCFA0
:107FB00084E1DFCFCF93C82FE3DFC150E9F7CF9142
:0E7FC000F1CF282E80E0E8DFE0E0FF270994F3
:027FFE00020679
:00000001FF
